:100000000C942A000C9447000C9447000C94470071
:100010000C9447000C9447000C9447000C94470044
:100020000C9447000C9447000C9447000C94470034
:100030000C9447000C9447000C9447000C94470024
:100040000C9447000C9447000C9447000C94470014
:100050000C94470011241FBECFE5D8E0DEBFCDBF12
:1000600011E0A0E6B0E0E0E3FCE002C005900D92F4
:10007000AC38B107D9F721E0ACE8B1E001C01D927E
:10008000A739B207E1F70E94A6050C9416060C9456
:100090000000982F9695969596958770913021F14E
:1000A00030F09230F1F1933009F458C00895613086
:1000B00069F44BB321E030E0B90102C0660F771F4D
:1000C0008A95E2F7CB01842B8BBB08954BB321E0DB
:1000D00030E0B90102C0660F771F8A95E2F7CB01C5
:1000E000809584238BBB0895613069F448B321E087
:1000F00030E0B90102C0660F771F8A95E2F7CB01A5
:10010000842B88BB089548B321E030E0B90102C0D8
:10011000660F771F8A95E2F7CB018095842388BB11
:100120000895613069F445B321E030E0B90102C0BF
:10013000660F771F8A95E2F7CB01842B85BB089564
:1001400045B321E030E0B90102C0660F771F8A9500
:10015000E2F7CB018095842385BB0895613069F473
:1001600042B321E030E0B90102C0660F771F8A95E3
:10017000E2F7CB01842B82BB089542B321E030E04B
:10018000B90102C0660F771F8A95E2F7CB0180950F
:10019000842382BB0895982F969596959695482F1F
:1001A0004770913081F028F09230B9F09330F9F037
:1001B00028C099B3892F90E002C0959587954A95FC
:1001C000E2F78170089526B330E0C90102C0959529
:1001D00087954A95E2F78170089523B330E0C9010D
:1001E00002C0959587954A95E2F78170089520B3EE
:1001F00030E0C90102C0959587954A95E2F7817074
:10020000089580E0089580E0A0C0982F9695969577
:100210009695282F2770913061F138F0923009F4CB
:100220004CC0933009F46DC08FC0E82FF0E0EE0FA2
:10023000FF1FEB59FF4F9081913069F49AB341E071
:1002400050E0BA0102C0660F771F2A95E2F79B01C2
:10025000292B2ABB79C09AB341E050E0BA0102C011
:10026000660F771F2A95E2F79B01209529232ABB69
:100270006BC0E82FF0E0EE0FFF1FEB59FF4F9081AE
:10028000913069F497B341E050E0BA0102C0660FC3
:10029000771F2A95E2F79B01292B27BB55C097B3FF
:1002A00041E050E0BA0102C0660F771F2A95E2F7DD
:1002B0009B012095292327BB47C0E82FF0E0EE0FD4
:1002C000FF1FEB59FF4F9081913069F494B341E0E7
:1002D00050E0BA0102C0660F771F2A95E2F79B0132
:1002E000292B24BB31C094B341E050E0BA0102C0D5
:1002F000660F771F2A95E2F79B012095292324BBDF
:1003000023C0E82FF0E0EE0FFF1FEB59FF4F908165
:10031000913069F491B341E050E0BA0102C0660F38
:10032000771F2A95E2F79B01292B21BB0DC091B3C2
:1003300041E050E0BA0102C0660F771F2A95E2F74C
:100340009B012095292321BB8F5F803208F45DCF6C
:1003500008954AEF489F9001499F300D1124A3E86A
:10036000BDE20E94070696958795929582958F70BB
:1003700089279F70892787509F4F9BBD8ABD08950D
:1003800061E080E10E94490061E081E10E94490052
:1003900061E082E10E94490061E083E10E9449003E
:1003A000089560E084E10E94490061E085E10E94D7
:1003B000490061E086E10E94490061E087E10E9416
:1003C000490080E10E94CB00811118C08AE20E949E
:1003D0002E0580919501E82FF0E0E457FE4F97E35A
:1003E00090838F5F80939501809196018F5F8093BA
:1003F000960180E10E94CB008823D9F381E10E941D
:10040000CB00811118C08AE20E942E0580919501CF
:10041000E82FF0E0E457FE4F98E390838F5F8093DE
:100420009501809196018F5F8093960181E10E94F2
:10043000CB008823D9F382E10E94CB00811118C040
:100440008AE20E942E0580919501E82FF0E0E457A2
:10045000FE4F99E390838F5F809395018091960181
:100460008F5F8093960182E10E94CB008823D9F3AD
:1004700083E10E94CB00811118C08AE20E942E0500
:1004800080919501E82FF0E0E457FE4F9FE29083C2
:100490008F5F80939501809196018F5F8093960185
:1004A00083E10E94CB008823D9F3089561E084E1C1
:1004B0000E94490060E085E10E94490061E086E118
:1004C0000E94490061E087E10E94490080E10E94AA
:1004D000CB00811118C08AE20E942E0580919501FF
:1004E000E82FF0E0E457FE4F94E390838F5F809312
:1004F0009501809196018F5F8093960180E10E9423
:10050000CB008823D9F381E10E94CB00811118C070
:100510008AE20E942E0580919501E82FF0E0E457D1
:10052000FE4F95E390838F5F8093950180919601B4
:100530008F5F8093960181E10E94CB008823D9F3DD
:1005400082E10E94CB00811118C08AE20E942E0530
:1005500080919501E82FF0E0E457FE4F96E39083F9
:100560008F5F80939501809196018F5F80939601B4
:1005700082E10E94CB008823D9F383E10E94CB0063
:10058000811118C08AE20E942E0580919501E82F02
:10059000F0E0E457FE4F98E790838F5F80939501DA
:1005A000809196018F5F8093960183E10E94CB003A
:1005B0008823D9F3089561E084E10E94490061E055
:1005C00085E10E94490060E086E10E94490061E007
:1005D00087E10E94490080E10E94CB00811118C090
:1005E0008AE20E942E0580919501E82FF0E0E45701
:1005F000FE4F91E390838F5F8093950180919601E8
:100600008F5F8093960180E10E94CB008823D9F30D
:1006100081E10E94CB00811118C08AE20E942E0560
:1006200080919501E82FF0E0E457FE4F92E390832C
:100630008F5F80939501809196018F5F80939601E3
:1006400081E10E94CB008823D9F382E10E94CB0094
:10065000811118C08AE20E942E0580919501E82F31
:10066000F0E0E457FE4F93E390838F5F8093950112
:10067000809196018F5F8093960182E10E94CB006A
:100680008823D9F383E10E94CB00811118C08AE24C
:100690000E942E0580919501E82FF0E0E457FE4F6F
:1006A0009DE290838F5F80939501809196018F5F8B
:1006B0008093960183E10E94CB008823D9F30895AB
:1006C00080919601843049F490918C018091610071
:1006D000981731F080E090E0089580E090E0089570
:1006E00081E090E0089561E084E10E94490061E0CA
:1006F00085E10E94490061E086E10E94490060E0D6
:1007000087E10E94490080E10E94CB00811105C071
:1007100080E10E94CB008823D9F381E10E94CB00C5
:10072000811129C08AE20E942E0561E08CE10E94BD
:1007300049002FEF85EA9EE0215080409040E1F78C
:1007400000C0000060E08CE10E94490080919501AA
:10075000E82FF0E0E457FE4F90E390838F5F8093A3
:100760009501809196018F5F8093960181E10E94AF
:10077000CB008823D9F382E10E94CB008111DBC03A
:100780000E946003019709F0AFC081E00E94B904A4
:1007900061E08DE10E94490087E893E197BD86BD45
:1007A00082E88FBD8BE18EBD82E390E09BBD8ABD68
:1007B0008AE590E00E94A90185EA90E00E94770511
:1007C00080E00E94C30588B38F7E88BB0E94F0053D
:1007D0008333D9F128F4813351F08233F9F07FC0AB
:1007E000843309F44AC0853309F45FC078C081E0DE
:1007F0000E94DD0589EC90E00E94F40583EB90E017
:100800000E94F4050E94F005813301F781E00E9407
:10081000DD058FEB90E00E94F405D8CF82E00E94C6
:10082000DD0589EC90E00E94F4058CEC90E00E94DC
:10083000F4050E94F005823349F682E00E94DD054E
:1008400088ED90E00E94F405C1CF83E00E94DD05B1
:1008500089EC90E00E94F40585EE90E00E94F4059A
:100860000E94F005833309F0B1CF83E00E94DD05DB
:100870008EEE90E00E94F405A9CF84E00E94DD0591
:1008800089EC90E00E94F40588EF90E00E94F40566
:100890000E94F005843309F099CF84E00E94DD05C1
:1008A0008AE091E00E94F40591CF80E090E00E9400
:1008B000A90189EC90E00E94F4058CE191E00E948E
:1008C000F4050E94F005853309F080CF8AE590E0B9
:1008D0000E94A9018EE291E00E94F40577CF8EE399
:1008E00091E00E94F40572CF81E00E94B90486E590
:1008F00091E00E9477052FEF87EF9AE22150804028
:100900009040E1F700C0000040E861E086E691E039
:100910000E948A0541EC62E086E791E00E948A0528
:1009200010926000109295011092960182E10E944F
:10093000CB008823D9F383E10E94CB00811118C03A
:100940008AE20E942E0580919501E82FF0E0E4579D
:10095000FE4F9BE290838F5F80939501809196017B
:100960008F5F8093960183E10E94CB008823D9F3A7
:100970000895CF93C82F8BB38F709C2F907F892BB6
:100980008BBB60E089E00E94490060E08BE00E9440
:1009900049002FEF31EE84E0215030408040E1F7F4
:1009A00000C0000061E08BE00E9449008FE19EE4FE
:1009B0000197F1F700C000002BB330E1C39FC001E5
:1009C0001124922F9F70892B8BBB60E089E00E94DD
:1009D000490060E08BE00E9449008FEF91EE24E037
:1009E000815090402040E1F700C0000061E08BE0C2
:1009F0000E9449008FE39FE10197F1F700C00000DA
:100A0000CF9108952FEF89EF90E0215080409040E2
:100A1000E1F700C0000060E08AE00E94490083E343
:100A20000E94B90487E092E00197F1F700C000004E
:100A300082E30E94B90488E20E94B90486E00E9421
:100A4000B9048FE00E94B90481E00E94B9048FE3E9
:100A50009FE10197F1F700C000000895CF93C82FE0
:100A60008BB38F709C2F907F892B8BBB61E089E0CB
:100A70000E94490060E08BE00E9449002FEF31EEB8
:100A800084E0215030408040E1F700C0000061E088
:100A90008BE00E9449008FED9EE20197F1F700C0C4
:100AA00000002BB330E1C39FC0011124922F9F702F
:100AB000892B8BBB61E089E00E94490060E08BE0FC
:100AC0000E9449008FEF91EE24E081509040204039
:100AD000E1F700C0000061E08BE00E9449008FED6B
:100AE0009EE20197F1F700C00000CF9108950F93A7
:100AF0001F93CF938C01C0E003C00E942E05CF5FEF
:100B0000F801EC0FF11D80818111F7CFCF911F917A
:100B10000F910895CF93DF93EC01613019F06230AB
:100B200051F011C0842F8F7080680E94B904CE01EB
:100B30000E94770508C0842F8F70806C0E94B904D2
:100B4000CE010E947705DF91CF9108950E940301A5
:100B50000E9402050E94E2050E94C00140E861E097
:100B600080E891E00E948A0541EC62E086E791E02E
:100B70000E948A050E94D1010E9456020E94DB0257
:100B80000E947303F7CF882319F0813069F008952C
:100B900087B3806B87BB87B38F7B87BB88B380614C
:100BA00088BB80E58DB9089587B3806487BB87B320
:100BB0008F7487BB80E48DB908958FB9779BFECF82
:100BC0008FB108958AB188618AB980B5866880BD81
:100BD00087E689B910BC08955D9BFECF8CB9089556
:100BE0005F9BFECF8CB108950F931F93CF938C0121
:100BF000C0E003C00E94EC05CF5FF801EC0FF11DCF
:100C000080818111F7CFCF911F910F910895A29FFD
:100C1000B001B39FC001A39F700D811D1124911DD0
:100C2000B29F700D811D1124911D0895F894FFCF7E
:100C300001303031310101010101010101010101E6
:100C40000101010101000001010101010100000198
:100C5000010101010100000000000000000101018C
:100C60000101010101010101010000010101010176
:100C70000101010101202057656C636F6D652053F0
:100C8000697200526F6F6D31204F4E200D0A005275
:100C90006F6F6D31204F4646200D0A00526F6F6D09
:100CA00032204F4E200D0A00526F6F6D32204F469A
:100CB00046200D0A005456204F4E200D0A0054566F
:100CC000204F4646200D0A0046616E20697320576A
:100CD0006F726B696E67200D0A0046616E20697342
:100CE00020436C6F73696E67200D0A00446F6F724A
:100CF00020697320636C6F736564200D0A00446F74
:100D00006F72206973206F70656E200D0A00536F3B
:100D1000727279206E6F2073756368206F707469CA
:100D20006F6E200D0A0057726F6E672050617373EB
:100D3000776F72642100456E746572207468652057
:100D400020202020200050617373776F72643A0076
:0C0D5000456E7465722074686520000018
:00000001FF
