:100000000C942A000C943F000C943F000C943F0089
:100010000C943F000C943F000C943F000C943F0064
:100020000C943F000C943F000C943F000C943F0054
:100030000C943F000C943F000C943F000C943F0044
:100040000C943F000C943F000C943F000C943F0034
:100050000C943F0011241FBECFE5D8E0DEBFCDBF1A
:1000600010E0A0E6B0E0ECEEF3E002C005900D92E7
:10007000A03AB107D9F70E9469010C94F4010C94DD
:100080000000982F9695969596958770913021F15E
:1000900030F09230F1F1933009F458C00895613096
:1000A00069F44BB321E030E0B90102C0660F771F5D
:1000B0008A95E2F7CB01842B8BBB08954BB321E0EB
:1000C00030E0B90102C0660F771F8A95E2F7CB01D5
:1000D000809584238BBB0895613069F448B321E097
:1000E00030E0B90102C0660F771F8A95E2F7CB01B5
:1000F000842B88BB089548B321E030E0B90102C0E9
:10010000660F771F8A95E2F7CB018095842388BB21
:100110000895613069F445B321E030E0B90102C0CF
:10012000660F771F8A95E2F7CB01842B85BB089574
:1001300045B321E030E0B90102C0660F771F8A9510
:10014000E2F7CB018095842385BB0895613069F483
:1001500042B321E030E0B90102C0660F771F8A95F3
:10016000E2F7CB01842B82BB089542B321E030E05B
:10017000B90102C0660F771F8A95E2F7CB0180951F
:10018000842382BB089580E0A0C0982F9695969511
:100190009695282F2770913061F138F0923009F44C
:1001A0004CC0933009F46DC08FC0E82FF0E0EE0F23
:1001B000FF1FE05AFF4F9081913069F49AB341E0FC
:1001C00050E0BA0102C0660F771F2A95E2F79B0143
:1001D000292B2ABB79C09AB341E050E0BA0102C092
:1001E000660F771F2A95E2F79B01209529232ABBEA
:1001F0006BC0E82FF0E0EE0FFF1FE05AFF4F908139
:10020000913069F497B341E050E0BA0102C0660F43
:10021000771F2A95E2F79B01292B27BB55C097B37F
:1002200041E050E0BA0102C0660F771F2A95E2F75D
:100230009B012095292327BB47C0E82FF0E0EE0F54
:10024000FF1FE05AFF4F9081913069F494B341E071
:1002500050E0BA0102C0660F771F2A95E2F79B01B2
:10026000292B24BB31C094B341E050E0BA0102C055
:10027000660F771F2A95E2F79B012095292324BB5F
:1002800023C0E82FF0E0EE0FFF1FE05AFF4F9081F0
:10029000913069F491B341E050E0BA0102C0660FB9
:1002A000771F2A95E2F79B01292B21BB0DC091B343
:1002B00041E050E0BA0102C0660F771F2A95E2F7CD
:1002C0009B012095292321BB8F5F803208F45DCFED
:1002D000089581E00E94D5010E94C30061E08DE194
:1002E0000E94410081E88FBD8BE08EBD80E590E0EB
:1002F0009BBD8ABD81E10E94EF01813069F461E01C
:100300008CE10E94410081E10E94EF01813021F4E3
:1003100060E08CE10E94410082E20E94EF018230A5
:1003200069F461E08EE10E94410082E20E94EF01E7
:10033000823021F460E08EE10E94410083E30E945C
:10034000EF01833069F461E08FE10E94410083E3B3
:100350000E94EF01833021F460E08FE10E944100B0
:1003600084E40E94EF01843029F661E083E10E9479
:10037000410060E084E10E9441002FEF83ED90E3B3
:10038000215080409040E1F700C0000084E40E94CA
:10039000EF01843009F0AECF60E083E10E944100BC
:1003A00060E084E10E944100A5CF882319F08130EC
:1003B00069F0089587B3806B87BB87B38F7B87BB5A
:1003C00088B3806188BB80E58DB9089587B3806468
:1003D00087BB87B38F7487BB80E48DB908958FB9CD
:0C03E000779BFECF8FB10895F894FFCFFB
:1003EC0001010101010101010101010101010101F1
:1003FC0000000101010101010000010101010101E5
:10040C0001010101010101010101010101010101D0
:10041C0001010101000001010101010101010101C2
:00000001FF
